:100000000C942A000C943F000C943F000C943F0089
:100010000C943F000C943F000C943F000C943F0064
:100020000C943F000C943F000C943F000C943F0054
:100030000C943F000C943F000C943F000C943F0044
:100040000C943F000C943F000C943F000C943F0034
:100050000C943F0011241FBECFE5D8E0DEBFCDBF1A
:1000600010E0A0E6B0E0E8E9F4E202C005900D92ED
:10007000A837B107D9F70E948E110C944A120C943C
:100080000000EF92FF920F931F937B018C0120E001
:1000900030E040E05FE40E94ED0388238CF0C8016B
:1000A000B70120E030E040E05FE40E94B9010E9427
:1000B0004D049B01AC01205030404040504806C0E8
:1000C000C801B7010E944D049B01AC01B901CA01EE
:1000D0001F910F91FF90EF900895A0E0B0E0E3E74B
:1000E000F0E00C941312DC012B01FA019C91923088
:1000F00008F439C1EB018881823008F433C19430AF
:1001000069F4843009F02FC111969C91119789816F
:10011000981709F428C1A0E6B0E025C1843009F49D
:1001200021C18230A9F4923009F01DC19A01AD01BC
:1001300088E0EA010990AE01E90109929E0181502F
:10014000C1F7E201898111969C918923818308C1BD
:10015000923009F407C112962D903C901397EB0151
:100160008A819B811496AD90BD90CD90DC901797BD
:10017000EC80FD800E811F819101281B390BB90194
:1001800037FF04C066277727621B730B6032710547
:100190000CF061C0121613066CF537014801062EEB
:1001A00004C096948794779467940A94D2F721E0D8
:1001B00030E040E050E004C0220F331F441F551FC1
:1001C0006A95D2F721503040404050402E213F21C7
:1001D00040235123211531054105510521F021E02E
:1001E00030E040E050E079018A01E628F72808294C
:1001F00019293CC0232BD1F1260E371E35014601AB
:10020000062E04C096948794779467940A94D2F744
:1002100021E030E040E050E004C0220F331F441FD3
:10022000551F6A95D2F721503040404050402A2156
:100230003B214C215D21211531054105510521F05E
:1002400021E030E040E050E059016A01A628B728DB
:10025000C828D9280BC0821593052CF01C01AA24AC
:10026000BB24650103C0EE24FF24870111969C91F5
:10027000D20111968C91981709F445C0992339F051
:10028000A80197012A193B094C095D0906C0A6017E
:1002900095012E193F09400B510B57FD08C01182E3
:1002A0003382228224833583468357831DC081E0B5
:1002B00081833382228288279927DC01821B930B5A
:1002C000A40BB50B84839583A683B7830DC0220F3F
:1002D000331F441F551F24833583468357838281F0
:1002E000938101979383828324813581468157814D
:1002F000DA01C9010197A109B1098F5F9F4FAF4F83
:10030000BF4328F30BC0918333822282EA0CFB1C8B
:100310000C1D1D1DE482F5820683178383E0808314
:10032000248135814681578157FF1AC0C901AA2708
:1003300097FDA095BA2F81709070A070B0705695FF
:10034000479537952795822B932BA42BB52B848328
:100350009583A683B7838281938101969383828359
:10036000DF0101C0D201CD01CDB7DEB7E2E10C94CF
:100370002F12A0E2B0E0EFEBF1E00C941F126983C2
:100380007A838B839C832D833E834F835887E9E058
:10039000EE2EF12CEC0EFD1ECE010196B7010E944F
:1003A00076058E010F5E1F4FCE010596B8010E94A3
:1003B00076058A8991E089278A8BC701B801AE0149
:1003C000475E5F4F0E946D000E94A104A096E6E088
:1003D0000C943B12A0E2B0E0E0EFF1E00C941F12AD
:1003E00069837A838B839C832D833E834F835887D5
:1003F000F9E0EF2EF12CEC0EFD1ECE010196B701B7
:100400000E9476058E010F5E1F4FCE010596B80142
:100410000E947605C701B801AE01475E5F4F0E949A
:100420006D000E94A104A096E6E00C943B12A0E2AD
:10043000B0E0EDE1F2E00C94131269837A838B83D0
:100440009C832D833E834F835887CE010196BE0146
:10045000675F7F4F0E947605CE010596BE016F5EF5
:100460007F4F0E9476059985923088F08989823085
:10047000C8F0943019F4823051F404C0843029F467
:10048000923081F480E690E0C6C0923049F420E0DA
:100490009A858A89981321E02A87CE010996BBC0E4
:1004A000823049F420E09A858A89981321E02A8BCA
:1004B000CE014196B0C02D843E844F8458886D880B
:1004C0007E888F88988CEE24FF248701AA24BB2481
:1004D000650140E050E060E070E0E0E0F0E0C10184
:1004E00081709070892BE9F0E60CF71C081D191D2E
:1004F0009A01AB012A0D3B1D4C1D5D1D80E090E073
:10050000A0E0B0E0E614F7040805190520F481E046
:1005100090E0A0E0B0E0BA01A901480F591F6A1F9E
:100520007B1FAA0CBB1CCC1CDD1C97FE08C081E005
:1005300090E0A0E0B0E0A82AB92ACA2ADB2A3196C6
:10054000E032F10549F0660C771C881C991C569422
:10055000479437942794C3CFFA85EA892B893C893D
:100560008B859C85280F391F2E5F3F4F17C0CA010E
:1005700081709070892B61F016950795F794E79438
:1005800080E090E0A0E0B0E8E82AF92A0A2B1B2BD3
:1005900076956795579547952F5F3F4F77FDE7CF46
:1005A0000CC0440F551F661F771F17FD4160EE0CEE
:1005B000FF1C001F111F21503040403090E05907B0
:1005C00090E0690790E4790760F32B8F3C8FDB01A3
:1005D000CA018F779070A070B07080349105A1052A
:1005E000B10561F447FD0AC0E114F10401051105EC
:1005F00029F0405C5F4F6F4F7F4F40781A8EFE1797
:1006000011F081E08A8F4D8F5E8F6F8F78A383E02A
:10061000898FCE0149960E94A104A096E2E10C9434
:100620002F12A8E1B0E0E7E1F3E00C941B1269831C
:100630007A838B839C832D833E834F835887B9E0D5
:10064000EB2EF12CEC0EFD1ECE010196B7010E949F
:1006500076058E010F5E1F4FCE010596B8010E94F0
:1006600076052985223008F47EC03989323010F4AD
:10067000B8017CC08A859A8989278A87243011F03D
:10068000223031F4231709F06EC060E670E06EC0CE
:10069000343039F41D861E861F86188A1C861B86F8
:1006A00004C0323021F484E08987B7015FC02B8514
:1006B0003C858B899C89281B390B3C872B87ED84D3
:1006C000FE840F851889AD88BE88CF88D88CEA143F
:1006D000FB040C051D0540F4EE0CFF1C001F111F50
:1006E000215030403C872B8720E030E040E050E054
:1006F00080E090E0A0E0B0E460E070E0EA14FB0489
:100700000C051D0540F0282B392B4A2B5B2BEA18D2
:10071000FB080C091D09B695A79597958795EE0CD2
:10072000FF1C001F111F6F5F7F4F6F31710531F785
:10073000DA01C9018F779070A070B0708034910594
:10074000A105B10561F427FD0AC0E114F10401051A
:10075000110529F0205C3F4F4F4F5F4F20782D87C8
:100760003E874F87588BBE01675F7F4FCB010E944A
:10077000A1046896EAE00C943712A8E1B0E0E3EC3B
:10078000F3E00C941F1269837A838B839C832D83FF
:100790003E834F83588789E0E82EF12CEC0EFD1E36
:1007A000CE010196B7010E9476058E010F5E1F4FA4
:1007B000CE010596B8010E9476058985823040F009
:1007C0008989823028F0C701B8010E94EE0501C076
:1007D0008FEF6896E6E00C943B12A8E1B0E0E3EFFF
:1007E000F3E00C941F1269837A838B839C832D839F
:1007F0003E834F83588789E0E82EF12CEC0EFD1ED6
:10080000CE010196B7010E9476058E010F5E1F4F43
:10081000CE010596B8010E9476058985823040F0A8
:100820008989823028F0C701B8010E94EE0501C015
:100830008FEF6896E6E00C943B12A8E1B0E0E3E2AB
:10084000F4E00C941F1269837A838B839C832D833D
:100850003E834F83588789E0E82EF12CEC0EFD1E75
:10086000CE010196B7010E9476058E010F5E1F4FE3
:10087000CE010596B8010E9476058985823040F048
:100880008989823028F0C701B8010E94EE0501C0B5
:1008900081E06896E6E00C943B12ACE0B0E0E3E562
:1008A000F4E00C94231269837A838B839C83CE01BA
:1008B0000196BE016B5F7F4F0E9476058D8182306D
:1008C00061F1823050F1843021F48E81882351F11E
:1008D0002EC02F81388537FD20C06E812F31310524
:1008E0001CF06623F9F023C08EE190E0821B930B8D
:1008F00029853A854B855C8504C056954795379583
:1009000027958A95D2F76623B1F05095409530959A
:1009100021953F4F4F4F5F4F0EC020E030E040E049
:1009200050E009C02FEF3FEF4FEF5FE704C020E03A
:1009300030E040E050E8B901CA012C96E2E00C94A6
:100940003F12DF92EF92FF920F931F93FC01E4801E
:10095000F58006811781D1808081823048F480E063
:1009600090E0A0E1B0E0E82AF92A0A2B1B2BA5C0F1
:10097000843009F49FC0823021F4EE24FF248701E3
:1009800005C0E114F1040105110519F4E0E0F0E0FF
:1009900096C0628173819FEF623879070CF05BC06B
:1009A00022E83FEF261B370B2A3131052CF020E0DF
:1009B00030E040E050E02AC0B801A701022E04C098
:1009C00076956795579547950A94D2F781E090E020
:1009D000A0E0B0E004C0880F991FAA1FBB1F2A9592
:1009E000D2F70197A109B1098E219F21A023B1233C
:1009F0000097A105B10521F081E090E0A0E0B0E012
:100A00009A01AB01282B392B4A2B5B2BDA01C90148
:100A10008F779070A070B07080349105A105B105FA
:100A200039F427FF09C0205C3F4F4F4F5F4F04C090
:100A3000215C3F4F4F4F5F4FE0E0F0E02030A0E0FF
:100A40003A07A0E04A07A0E45A0710F0E1E0F0E01E
:100A500079018A0127C06038710564F5FB01E1580E
:100A6000FF4FD801C7018F779070A070B0708034AD
:100A70009105A105B10539F4E7FE0DC080E490E0D1
:100A8000A0E0B0E004C08FE390E0A0E0B0E0E80EAA
:100A9000F91E0A1F1B1F17FF05C016950795F7942F
:100AA000E794319687E016950795F794E7948A9531
:100AB000D1F705C0EE24FF248701EFEFF0E06E2FA1
:100AC000679566276795902F9F77D794DD24D794F5
:100AD0008E2F8695492F462B582F5D29B701CA01C5
:100AE0001F910F91FF90EF90DF900895FC01DB01C3
:100AF000408151812281622F6F7770E0221F22276F
:100B0000221F9381892F880F822B282F30E0991F75
:100B10009927991F11969C93119721153105A9F5D5
:100B2000411551056105710511F482E037C082E875
:100B30009FEF13969C938E9312979A01AB0167E0F7
:100B4000220F331F441F551F6A95D1F783E08C9302
:100B50000DC0220F331F441F551F12968D919C917B
:100B60001397019713969C938E931297203080E0F1
:100B7000380780E0480780E4580758F314962D930F
:100B80003D934D935C93179708952F3F310579F46A
:100B9000411551056105710519F484E08C930895A0
:100BA00064FF03C081E08C9312C01C9210C02F57C9
:100BB000304013963C932E93129783E08C9387E0FA
:100BC000440F551F661F771F8A95D1F770641496DE
:100BD0004D935D936D937C93179708951F93DC015C
:100BE000FB019C91923008F447C08081823008F468
:100BF00043C0943051F411961C91843099F5818151
:100C0000682F70E0611B71093FC0843021F0923081
:100C100031F48230B9F18181882389F12DC0119698
:100C20001C9111978230F1F081811817D9F4129636
:100C30002D913C911397828193818217930794F0B1
:100C400028173907BCF014968D919D910D90BC9199
:100C5000A02D2481358146815781281739074A07FD
:100C60005B0718F4112341F00AC082179307A40709
:100C7000B50740F4112319F061E070E005C06FEF93
:100C80007FEF02C060E070E0CB011F910895DF9319
:100C9000CF9300D0CDB7DEB789836A838981803254
:100CA00008F0CAC08A81882321F08A81813009F046
:100CB000C3C08981883068F5AAE3B0E0EAE3F0E0D8
:100CC0008081482F8981882F90E09C0127703070A7
:100CD00081E090E002C0880F991F2A95E2F7809585
:100CE00084238C93AAE3B0E0EAE3F0E08081482F0C
:100CF0008A81282F30E08981882F90E0877090705A
:100D0000B90102C0660F771F8A95E2F7CB01842BE9
:100D10008C9389818850883068F5A7E3B0E0E7E3D9
:100D2000F0E08081482F8981882F90E09C01277016
:100D3000307081E090E002C0880F991F2A95E2F799
:100D4000809584238C93A7E3B0E0E7E3F0E0808113
:100D5000482F8A81282F30E08981882F90E0877082
:100D60009070B90102C0660F771F8A95E2F7CB0138
:100D7000842B8C9389818051883068F5A4E3B0E09E
:100D8000E4E3F0E08081482F8981882F90E09C0186
:100D90002770307081E090E002C0880F991F2A957B
:100DA000E2F7809584238C93A4E3B0E0E4E3F0E0E1
:100DB0008081482F8A81282F30E08981882F90E018
:100DC00087709070B90102C0660F771F8A95E2F7AD
:100DD000CB01842B8C9389818851883068F5A1E3FD
:100DE000B0E0E1E3F0E08081482F8981882F90E036
:100DF0009C012770307081E090E002C0880F991F3D
:100E00002A95E2F7809584238C93A1E3B0E0E1E397
:100E1000F0E08081482F8A81282F30E08981882F57
:100E200090E087709070B90102C0660F771F8A95B5
:100E3000E2F7CB01842B8C930F900F90CF91DF9131
:100E40000895DF93CF9300D0CDB7DEB789836A834F
:100E50008981803208F0CAC08A81882321F08A8182
:100E6000813009F0C3C08981883068F5ABE3B0E018
:100E7000EBE3F0E08081482F8981882F90E09C018E
:100E80002770307081E090E002C0880F991F2A958A
:100E9000E2F7809584238C93ABE3B0E0EBE3F0E0E2
:100EA0008081482F8A81282F30E08981882F90E027
:100EB00087709070B90102C0660F771F8A95E2F7BC
:100EC000CB01842B8C9389818850883068F5A8E306
:100ED000B0E0E8E3F0E08081482F8981882F90E03E
:100EE0009C012770307081E090E002C0880F991F4C
:100EF0002A95E2F7809584238C93A8E3B0E0E8E399
:100F0000F0E08081482F8A81282F30E08981882F66
:100F100090E087709070B90102C0660F771F8A95C4
:100F2000E2F7CB01842B8C9389818051883068F55E
:100F3000A5E3B0E0E5E3F0E08081482F8981882FC8
:100F400090E09C012770307081E090E002C0880F33
:100F5000991F2A95E2F7809584238C93A5E3B0E04E
:100F6000E5E3F0E08081482F8A81282F30E08981F5
:100F7000882F90E087709070B90102C0660F771FCC
:100F80008A95E2F7CB01842B8C9389818851883034
:100F900068F5A2E3B0E0E2E3F0E08081482F8981C8
:100FA000882F90E09C012770307081E090E002C0B3
:100FB000880F991F2A95E2F7809584238C93A2E3EA
:100FC000B0E0E2E3F0E08081482F8A81282F30E012
:100FD0008981882F90E087709070B90102C0660FF8
:100FE000771F8A95E2F7CB01842B8C930F900F909B
:100FF000CF91DF910895DF93CF9300D0CDB7DEB7C7
:101000008A838A81803208F097C08A81883010F5FF
:10101000E9E3F0E08081482F50E08A81882F90E05A
:101020009C012770307081E090E002C0880F991F0A
:101030002A95E2F79A01282339238A81882F90E0A4
:1010400087709070A90102C0559547958A95E2F77F
:10105000CA0189838A818850883010F5E6E3F0E080
:101060008081482F50E08A81882F90E09C01277072
:10107000307081E090E002C0880F991F2A95E2F756
:101080009A01282339238A81882F90E087709070F5
:10109000A90102C0559547958A95E2F7CA0189834F
:1010A0008A818051883010F5E3E3F0E08081482F99
:1010B00050E08A81882F90E09C012770307081E099
:1010C00090E002C0880F991F2A95E2F79A01282321
:1010D00039238A81882F90E087709070A90102C01F
:1010E000559547958A95E2F7CA0189838A81885187
:1010F000883010F5E0E3F0E08081482F50E08A81ED
:10110000882F90E09C012770307081E090E002C051
:10111000880F991F2A95E2F79A01282339238A819B
:10112000882F90E087709070A90102C0559547956F
:101130008A95E2F7CA01898389810F900F90CF9138
:10114000DF910895DF93CF93CDB7DEB7E7E3F0E00B
:101150008FE08083E8E3F0E080EF8083E6E3F0E077
:1011600080EF8083CF91DF910895DF93CF93CDB748
:10117000DEB7E9970FB6F894DEBF0FBECDBF0E9471
:10118000A2089E012E5D3F4F3EAB2DAB88E690E05E
:1011900098AF8FAB90E199AFEFA9F8AD00802FA980
:1011A00038AD2F5F3F4F38AF2FABEDA9FEA90082BE
:1011B0002DA93EA92F5F3F4F3EAB2DAB39AD31502E
:1011C00039AF89AD882341F719A218A21F8EE6E333
:1011D000F0E0808182958F70882F90E090708F3042
:1011E0009105A9F380E090E0A0EAB1E4898F9A8F9D
:1011F000AB8FBC8F698D7A8D8B8D9C8D20E030E01C
:101200004AEF54E40E941702DC01CB018D8B9E8BC8
:10121000AF8BB88F6D897E898F89988D20E030E003
:1012200040E85FE30E941D0488232CF481E090E0F5
:101230009C8B8B8B3FC06D897E898F89988D20E038
:101240003FEF4FE757E40E94BD0318164CF5698D38
:101250007A8D8B8D9C8D20E030E040E251E40E943D
:101260001702DC01CB01BC01CD010E944100DC0171
:10127000CB019C8B8B8B0FC088EC90E09A8B898B79
:1012800089899A890197F1F79A8B898B8B899C8937
:1012900001979C8B8B8B8B899C89009769F714C075
:1012A0006D897E898F89988D0E944100DC01CB0178
:1012B0009C8B8B8B8B899C89988B8F878F8598894A
:1012C0000197F1F7988B8F87E6E3F0E080818295B4
:1012D0008F70882F90E090708F309105A9F380E097
:1012E00090E0A0EAB1E48B879C87AD87BE876B85D1
:1012F0007C858D859E8520E030E04AEF54E40E9495
:101300001702DC01CB018F839887A987BA876F8189
:10131000788589859A8520E030E040E85FE30E9487
:101320001D0488232CF481E090E09E838D833FC0D0
:101330006F81788589859A8520E03FEF4FE757E4F4
:101340000E94BD0318164CF56B857C858D859E85A6
:1013500020E030E040E251E40E941702DC01CB01C2
:10136000BC01CD010E944100DC01CB019E838D8335
:101370000FC088EC90E09C838B838B819C810197CC
:10138000F1F79C838B838D819E8101979E838D8352
:101390008D819E81009769F714C06F81788589855A
:1013A0009A850E944100DC01CB019E838D838D8153
:1013B0009E819A83898389819A810197F1F79A8323
:1013C0008983E6E3F0E0808182958F70882F90E03A
:1013D000FC01F070FBABEAAB2AA93BA92B3031052D
:1013E000F1F08AA99BA98C30910534F4EAA9FBA9F4
:1013F000E730F105C9F01CC02AA93BA92D30310501
:1014000049F08AA99BA98E30910591F419A28EE02A
:101410008F8F0EC081E089A38DE08F8F09C082E09D
:1014200089A38BE08F8F04C083E089A387E08F8F2F
:101430001E8E8EE08D8F40C0A8E3B0E0E8E3F0E0C0
:101440008081807F8C93A8E3B0E0E8E3F0E09081B6
:101450008D8D892B8C93E6E3F0E0808182958F70EF
:10146000882F90E09C0130708F8D882F90E0281796
:101470003907C1F48E8D88A388A1282F30E089A177
:10148000482F50E0220F331F220F331FCE01019649
:10149000820F931F840F951FFC01B19680818CAB46
:1014A0008CA90EC08D8D882F90E0880F991F8160C8
:1014B0008D8F8E8D8F5F8E8F8E8D843008F4BCCF94
:1014C000E9960FB6F894DEBF0FBECDBFCF91DF9186
:1014D00008950F931F93DF93CF93CDB7DEB7CA550F
:1014E000D0400FB6F894DEBF0FBECDBFE4E3F0E00E
:1014F0008FEF8083EAE3F0E08FEF8083FE01E95A0B
:10150000FF4F80E090E0A8E4B2E480839183A2835F
:10151000B3838E010D5A1F4FFE01E95AFF4F6081C0
:1015200071818281938120E030E04AEF54E40E948F
:101530001702DC01CB01F80180839183A283B3837E
:10154000FE01ED5AFF4F608171818281938120E01D
:1015500030E040E85FE30E941D04882344F4FE016C
:10156000EF5AFF4F81E090E09183808364C0FE01D9
:10157000ED5AFF4F608171818281938120E03FEFBE
:101580004FE757E40E94BD0318160CF043C0FE015C
:10159000E95AFF4F608171818281938120E030E0C0
:1015A00040E251E40E941702DC01CB018E010F5A88
:1015B0001F4FBC01CD010E944100DC01CB01F801AD
:1015C000918380831FC0FE01E15BFF4F88EC90E0B8
:1015D00091838083FE01E15BFF4F808191810197C0
:1015E000F1F7FE01E15BFF4F91838083DE01AF5A8B
:1015F000BF4FFE01EF5AFF4F8081918101971196F5
:101600009C938E93FE01EF5AFF4F8081918100974A
:10161000D1F627C08E010F5A1F4FFE01ED5AFF4F22
:1016200060817181828193810E944100DC01CB0144
:10163000F80191838083DE01A35BBF4FFE01EF5A67
:10164000FF4F808191818D939C93FE01E35BFF4F5F
:10165000808191810197F1F7FE01E35BFF4F918358
:10166000808388E30E94D20DFE01E75BFF4F80E09C
:1016700090E0A8E4B2E480839183A283B3838E01D7
:101680000B5B1F4FFE01E75BFF4F60817181828121
:1016900093812BEA3AEA4AE250E40E941702DC0105
:1016A000CB01F80180839183A283B383FE01EB5BBE
:1016B000FF4F608171818281938120E030E040E8BA
:1016C0005FE30E941D04882334F4FE01EC5BFF4FAE
:1016D00081E08083A7C0FE01EB5BFF4F60817181D9
:1016E0008281938120E030E04FE753E40E94BD0304
:1016F00018160CF087C0FE01E75BFF4F6081718117
:101700008281938120E030E04AE754E40E94110393
:10171000DC01CB01FE01E05CFF4F80839183A2835B
:10172000B383FE01E05CFF4F608171818281938110
:1017300020E030E04AEF54E40E941702DC01CB01C4
:101740008CAF9DAFAEAFBFAF6CAD7DAD8EAD9FAD7D
:1017500020E030E040E85FE30E941D0488232CF481
:1017600081E090E09BAF8AAF42C06CAD7DAD8EADA5
:101770009FAD20E03FEF4FE757E40E94BD031816EE
:1017800064F5FE01E05CFF4F60817181828193818D
:1017900020E030E040E251E40E941702DC01CB017E
:1017A000BC01CD010E944100DC01CB019BAF8AAF9F
:1017B0000FC088EC90E099AF88AF88AD99AD0197E4
:1017C000F1F799AF88AF8AAD9BAD01979BAF8AAF18
:1017D0008AAD9BAD009769F72EC06CAD7DAD8EAD27
:1017E0009FAD0E944100DC01CB019BAF8AAF8AAD67
:1017F0009BAD9FAB8EAB8EA99FA90197F1F79FABD5
:101800008EAB19C08E010C5B1F4FFE01EB5BFF4FCF
:1018100060817181828193810E944100DC01CB0152
:10182000F8018083FE01EC5BFF4F80818DAB8DA9B9
:101830008A95F1F78DAB8EE00E94D20D80E090E0AA
:10184000A8E4B2E489AB9AABABABBCAB69A97AA90B
:101850008BA99CA92BEA3AEA4AE250E40E941702BB
:10186000DC01CB018DA79EA7AFA7B8AB6DA57EA568
:101870008FA598A920E030E040E85FE30E941D04B6
:1018800088231CF481E08CA791C06DA57EA58FA54F
:1018900098A920E030E04FE753E40E94BD031816FA
:1018A0000CF07BC069A97AA98BA99CA920E030E043
:1018B0004AE754E40E941103DC01CB0188A799A7F1
:1018C000AAA7BBA768A579A58AA59BA520E030E0BB
:1018D0004AEF54E40E941702DC01CB018CA39DA3C4
:1018E000AEA3BFA36CA17DA18EA19FA120E030E09B
:1018F00040E85FE30E941D0488232CF481E090E01F
:101900009BA38AA33FC06CA17DA18EA19FA120E0D3
:101910003FEF4FE757E40E94BD0318164CF568A54A
:1019200079A58AA59BA520E030E040E251E40E9421
:101930001702DC01CB01BC01CD010E944100DC019A
:10194000CB019BA38AA30FC088EC90E099A388A346
:1019500088A199A10197F1F799A388A38AA19BA1D6
:1019600001979BA38AA38AA19BA1009769F724C032
:101970006CA17DA18EA19FA10E944100DC01CB0141
:101980009BA38AA38AA19BA19F8F8E8F8E8D9F8DF3
:101990000197F1F79F8F8E8F0FC06DA57EA58FA544
:1019A00098A90E944100DC01CB018CA78CA58D8FEA
:1019B0008D8D8A95F1F78D8F81E00E94D20D80E0A8
:1019C00090E0A0EAB0E4898F9A8FAB8FBC8F698DCD
:1019D0007A8D8B8D9C8D20E030E04AEF54E40E949C
:1019E0001702DC01CB018D8B9E8BAF8BB88F6D897D
:1019F0007E898F89988D20E030E040E85FE30E9487
:101A00001D0488232CF481E090E09C8B8B8B3FC0DD
:101A10006D897E898F89988D20E03FEF4FE757E4ED
:101A20000E94BD0318164CF5698D7A8D8B8D9C8DA7
:101A300020E030E040E251E40E941702DC01CB01DB
:101A4000BC01CD010E944100DC01CB019C8B8B8B42
:101A50000FC088EC90E09A8B898B89899A890197CD
:101A6000F1F79A8B898B8B899C8901979C8B8B8B47
:101A70008B899C89009769F714C06D897E898F894D
:101A8000988D0E944100DC01CB019C8B8B8B8B8954
:101A90009C89988B8F878F8598890197F1F7988B10
:101AA0008F8786E00E94D20D80E090E0A0E8BFE33F
:101AB0008B879C87AD87BE876B857C858D859E8552
:101AC00020E030E04AEF54E40E941702DC01CB0131
:101AD0008F839887A987BA876F81788589859A854A
:101AE00020E030E040E85FE30E941D0488232CF4EE
:101AF00081E090E09E838D833FC06F8178858985EA
:101B00009A8520E03FEF4FE757E40E94BD03181687
:101B10004CF56B857C858D859E8520E030E040E22C
:101B200051E40E941702DC01CB01BC01CD010E94EF
:101B30004100DC01CB019E838D830FC088EC90E0D7
:101B40009C838B838B819C810197F1F79C838B8392
:101B50008D819E8101979E838D838D819E810097CB
:101B600069F714C06F81788589859A850E94410044
:101B7000DC01CB019E838D838D819E819A83898335
:101B800089819A810197F1F79A838983C65ADF4F39
:101B90000FB6F894DEBF0FBECDBFCF91DF911F917E
:101BA0000F910895DF93CF93CDB7DEB7E1970FB6CE
:101BB000F894DEBF0FBECDBF89ABABE3B0E0EBE383
:101BC000F0E080818B7F8C93E5E3F0E089A980834E
:101BD000ABE3B0E0EBE3F0E080818E7F8C93ABE38E
:101BE000B0E0EBE3F0E080818D7F8C93ABE3B0E07D
:101BF000EBE3F0E0808184608C9380E090E0A0E8EB
:101C0000BFE38DA79EA7AFA7B8AB6DA57EA58FA597
:101C100098A92BEA3AEA4AE250E40E941702DC0152
:101C2000CB0189A79AA7ABA7BCA769A57AA58BA565
:101C30009CA520E030E040E85FE30E941D0488237B
:101C40001CF481E088A791C069A57AA58BA59CA505
:101C500020E030E04FE753E40E94BD0318160CF07B
:101C60007BC06DA57EA58FA598A920E030E04AE74E
:101C700054E40E941103DC01CB018CA39DA3AEA30D
:101C8000BFA36CA17DA18EA19FA120E030E04AEF0F
:101C900054E40E941702DC01CB0188A399A3AAA3F4
:101CA000BBA368A179A18AA19BA120E030E040E814
:101CB0005FE30E941D0488232CF481E090E09F8F55
:101CC0008E8F3FC068A179A18AA19BA120E03FEF40
:101CD0004FE757E40E94BD0318164CF56CA17DA197
:101CE0008EA19FA120E030E040E251E40E94170263
:101CF000DC01CB01BC01CD010E944100DC01CB0124
:101D00009F8F8E8F0FC088EC90E09D8F8C8F8C8D75
:101D10009D8D0197F1F79D8F8C8F8E8D9F8D0197F3
:101D20009F8F8E8F8E8D9F8D009769F724C068A13D
:101D300079A18AA19BA10E944100DC01CB019F8F68
:101D40008E8F8E8D9F8D9B8F8A8F8A8D9B8D019715
:101D5000F1F79B8F8A8F0FC069A57AA58BA59CA5EB
:101D60000E944100DC01CB0188A788A5898F898D5D
:101D70008A95F1F7898FABE3B0E0EBE3F0E0808187
:101D80008B7F8C9380E090E0A0E8BFE38D8B9E8BEF
:101D9000AF8BB88F6D897E898F89988D2BEA3AEA4F
:101DA0004AE250E40E941702DC01CB01898B9A8B36
:101DB000AB8BBC8B69897A898B899C8920E030E068
:101DC00040E85FE30E941D0488231CF481E0888BB7
:101DD00091C069897A898B899C8920E030E04FE73E
:101DE00053E40E94BD0318160CF07BC06D897E89F8
:101DF0008F89988D20E030E04AE754E40E94110377
:101E0000DC01CB018C879D87AE87BF876C857D8584
:101E10008E859F8520E030E04AEF54E40E9417024F
:101E2000DC01CB0188879987AA87BB87688579857C
:101E30008A859B8520E030E040E85FE30E941D0436
:101E400088232CF481E090E09F838E833FC06885D7
:101E500079858A859B8520E03FEF4FE757E40E9414
:101E6000BD0318164CF56C857D858E859F8520E019
:101E700030E040E251E40E941702DC01CB01BC01DA
:101E8000CD010E944100DC01CB019F838E830FC0F6
:101E900088EC90E09D838C838C819D810197F1F784
:101EA0009D838C838E819F8101979F838E838E81FA
:101EB0009F81009769F724C0688579858A859B850D
:101EC0000E944100DC01CB019F838E838E819F8124
:101ED0009B838A838A819B810197F1F79B838A8305
:101EE0000FC069897A898B899C890E944100DC0135
:101EF000CB01888B8889898389818A95F1F78983C9
:101F0000E1960FB6F894DEBF0FBECDBFCF91DF9143
:101F10000895DF93CF93CDB7DEB7E1970FB6F8946E
:101F2000DEBF0FBECDBF89ABABE3B0E0EBE3F0E0CB
:101F300080818B7F8C93E5E3F0E089A98083ABE31C
:101F4000B0E0EBE3F0E0808181608C93ABE3B0E044
:101F5000EBE3F0E080818D7F8C93ABE3B0E0EBE3CB
:101F6000F0E0808184608C9380E090E0A0E8BFE3A3
:101F70008DA79EA7AFA7B8AB6DA57EA58FA598A985
:101F80002BEA3AEA4AE250E40E941702DC01CB0154
:101F900089A79AA7ABA7BCA769A57AA58BA59CA57D
:101FA00020E030E040E85FE30E941D0488231CF439
:101FB00081E088A791C069A57AA58BA59CA520E0A2
:101FC00030E04FE753E40E94BD0318160CF07BC0CD
:101FD0006DA57EA58FA598A920E030E04AE754E4DE
:101FE0000E941103DC01CB018CA39DA3AEA3BFA370
:101FF0006CA17DA18EA19FA120E030E04AEF54E4C6
:102000000E941702DC01CB0188A399A3AAA3BBA35A
:1020100068A179A18AA19BA120E030E040E85FE3BC
:102020000E941D0488232CF481E090E09F8F8E8F06
:102030003FC068A179A18AA19BA120E03FEF4FE7B3
:1020400057E40E94BD0318164CF56CA17DA18EA12A
:102050009FA120E030E040E251E40E941702DC0141
:10206000CB01BC01CD010E944100DC01CB019F8F5F
:102070008E8F0FC088EC90E09D8F8C8F8C8D9D8D06
:102080000197F1F79D8F8C8F8E8D9F8D01979F8F7C
:102090008E8F8E8D9F8D009769F724C068A179A1DE
:1020A0008AA19BA10E944100DC01CB019F8F8E8FF2
:1020B0008E8D9F8D9B8F8A8F8A8D9B8D0197F1F7D7
:1020C0009B8F8A8F0FC069A57AA58BA59CA50E94BE
:1020D0004100DC01CB0188A788A5898F898D8A956D
:1020E000F1F7898FABE3B0E0EBE3F0E080818B7F29
:1020F0008C9380E090E0A0E8BFE38D8B9E8BAF8B4C
:10210000B88F6D897E898F89988D2BEA3AEA4AE2E9
:1021100050E40E941702DC01CB01898B9A8BAB8BB8
:10212000BC8B69897A898B899C8920E030E040E802
:102130005FE30E941D0488231CF481E0888B91C01A
:1021400069897A898B899C8920E030E04FE753E4E4
:102150000E94BD0318160CF07BC06D897E898F89A3
:10216000988D20E030E04AE754E40E941103DC013E
:10217000CB018C879D87AE87BF876C857D858E85DB
:102180009F8520E030E04AEF54E40E941702DC0112
:10219000CB0188879987AA87BB87688579858A85D7
:1021A0009B8520E030E040E85FE30E941D04882327
:1021B0002CF481E090E09F838E833FC06885798511
:1021C0008A859B8520E03FEF4FE757E40E94BD03DF
:1021D00018164CF56C857D858E859F8520E030E056
:1021E00040E251E40E941702DC01CB01BC01CD01A9
:1021F0000E944100DC01CB019F838E830FC088ECDD
:1022000090E09D838C838C819D810197F1F79D8364
:102210008C838E819F8101979F838E838E819F8186
:10222000009769F724C0688579858A859B850E9417
:102230004100DC01CB019F838E838E819F819B8334
:102240008A838A819B810197F1F79B838A830FC0E0
:1022500069897A898B899C890E944100DC01CB01C4
:10226000888B8889898389818A95F1F78983E196AA
:102270000FB6F894DEBF0FBECDBFCF91DF910895AA
:10228000DF93CF9300D00F92CDB7DEB79B838A83C5
:1022900080E40E94741119820EC08981282F30E0D9
:1022A0008A819B81FC01E20FF31F80810E94890FCC
:1022B00089818F5F89838981893078F30F900F90AE
:1022C0000F90CF91DF910895DF93CF930F92CDB709
:1022D000DEB7898380E80E94811189810E94890F7D
:1022E0000F90CF91DF910895DF93CF930F92CDB7E9
:1022F000DEB7898389810E94D20D0F90CF91DF9143
:102300000895DF93CF930F92CDB7DEB7898389818C
:102310000E94D20D0F90CF91DF910895DF93CF935C
:10232000CDB7DEB72E970FB6F894DEBF0FBECDBF88
:102330000E94A2080E94690A0E94B5080E94890FA3
:1023400080E090E0A8ECB3E48B879C87AD87BE87E4
:102350006B857C858D859E8520E030E04AEF54E4D6
:102360000E941702DC01CB018F839887A987BA8767
:102370006F81788589859A8520E030E040E85FE3C9
:102380000E941D0488232CF481E090E09E838D83BD
:102390003FC06F81788589859A8520E03FEF4FE7C0
:1023A00057E40E94BD0318164CF56B857C858D851E
:1023B0009E8520E030E040E251E40E941702DC01FB
:1023C000CB01BC01CD010E944100DC01CB019E8309
:1023D0008D830FC088EC90E09C838B838B819C81E4
:1023E0000197F1F79C838B838D819E8101979E835A
:1023F0008D838D819E81009769F79ECF6F8178854F
:1024000089859A850E944100DC01CB019E838D83E2
:102410008D819E819A83898389819A810197F1F7C1
:102420009A83898389CF2F923F924F925F926F92C6
:102430007F928F929F92AF92BF92CF92DF92EF9254
:10244000FF920F931F93CF93DF93CDB7DEB7CA1BD5
:10245000DB0B0FB6F894DEBF0FBECDBF09942A8800
:10246000398848885F846E847D848C849B84AA84A8
:10247000B984C884DF80EE80FD800C811B81AA8135
:10248000B981CE0FD11D0FB6F894DEBF0FBECDBF00
:08249000ED010895F894FFCF5F
:1024980000000000000000003738392F3435362A94
:0824A8003132332D43303D2B8E
:00000001FF
